{
  "contractName": "TicTacToe",
  "abi": [
    {
      "constant": true,
      "inputs": [
        {
          "name": "",
          "type": "uint256"
        }
      ],
      "name": "games",
      "outputs": [
        {
          "name": "playerOne",
          "type": "address"
        },
        {
          "name": "playerTwo",
          "type": "address"
        },
        {
          "name": "playerOneStake",
          "type": "uint256"
        },
        {
          "name": "playerTwoStake",
          "type": "uint256"
        },
        {
          "name": "playerOneWins",
          "type": "uint256"
        },
        {
          "name": "playerTwoWins",
          "type": "uint256"
        },
        {
          "name": "winner",
          "type": "uint8"
        },
        {
          "name": "playerTurn",
          "type": "uint8"
        },
        {
          "name": "threshold",
          "type": "uint256"
        },
        {
          "name": "gameTime",
          "type": "uint256"
        },
        {
          "name": "duration",
          "type": "uint256"
        },
        {
          "name": "gameNo",
          "type": "uint256"
        }
      ],
      "payable": false,
      "stateMutability": "view",
      "type": "function"
    },
    {
      "constant": true,
      "inputs": [],
      "name": "nrOfGames",
      "outputs": [
        {
          "name": "",
          "type": "uint256"
        }
      ],
      "payable": false,
      "stateMutability": "view",
      "type": "function"
    },
    {
      "inputs": [],
      "payable": false,
      "stateMutability": "nonpayable",
      "type": "constructor"
    },
    {
      "anonymous": false,
      "inputs": [
        {
          "indexed": false,
          "name": "gameId",
          "type": "uint256"
        },
        {
          "indexed": false,
          "name": "creator",
          "type": "address"
        }
      ],
      "name": "GameCreated",
      "type": "event"
    },
    {
      "anonymous": false,
      "inputs": [
        {
          "indexed": false,
          "name": "gameId",
          "type": "uint256"
        },
        {
          "indexed": false,
          "name": "player",
          "type": "address"
        },
        {
          "indexed": false,
          "name": "playerNumber",
          "type": "uint8"
        }
      ],
      "name": "PlayerJoinedGame",
      "type": "event"
    },
    {
      "anonymous": false,
      "inputs": [
        {
          "indexed": false,
          "name": "gameId",
          "type": "uint256"
        },
        {
          "indexed": false,
          "name": "player",
          "type": "address"
        },
        {
          "indexed": false,
          "name": "xCoordinate",
          "type": "uint256"
        },
        {
          "indexed": false,
          "name": "yCoordinate",
          "type": "uint256"
        }
      ],
      "name": "PlayerMadeMove",
      "type": "event"
    },
    {
      "anonymous": false,
      "inputs": [
        {
          "indexed": false,
          "name": "gameId",
          "type": "uint256"
        },
        {
          "indexed": false,
          "name": "winner",
          "type": "uint8"
        }
      ],
      "name": "GameOver",
      "type": "event"
    },
    {
      "anonymous": false,
      "inputs": [
        {
          "indexed": false,
          "name": "money",
          "type": "uint256"
        }
      ],
      "name": "SentMoney",
      "type": "event"
    },
    {
      "anonymous": false,
      "inputs": [
        {
          "indexed": false,
          "name": "gameId",
          "type": "uint256"
        },
        {
          "indexed": false,
          "name": "gameNo",
          "type": "uint256"
        },
        {
          "indexed": false,
          "name": "winner",
          "type": "uint8"
        }
      ],
      "name": "gameDone",
      "type": "event"
    },
    {
      "anonymous": false,
      "inputs": [
        {
          "indexed": false,
          "name": "duration",
          "type": "uint256"
        },
        {
          "indexed": false,
          "name": "player",
          "type": "address"
        }
      ],
      "name": "TimedOut",
      "type": "event"
    },
    {
      "constant": false,
      "inputs": [],
      "name": "newGame",
      "outputs": [
        {
          "name": "gameId",
          "type": "uint256"
        },
        {
          "name": "creator",
          "type": "address"
        }
      ],
      "payable": false,
      "stateMutability": "nonpayable",
      "type": "function"
    },
    {
      "constant": false,
      "inputs": [
        {
          "name": "_gameId",
          "type": "uint256"
        },
        {
          "name": "choice",
          "type": "uint8"
        }
      ],
      "name": "joinGame",
      "outputs": [
        {
          "name": "success",
          "type": "bool"
        },
        {
          "name": "reason",
          "type": "string"
        }
      ],
      "payable": true,
      "stateMutability": "payable",
      "type": "function"
    },
    {
      "constant": false,
      "inputs": [
        {
          "name": "_gameId",
          "type": "uint256"
        },
        {
          "name": "_xCoordinate",
          "type": "uint256"
        },
        {
          "name": "_yCoordinate",
          "type": "uint256"
        }
      ],
      "name": "makeMove",
      "outputs": [
        {
          "name": "success",
          "type": "bool"
        },
        {
          "name": "reason",
          "type": "string"
        }
      ],
      "payable": true,
      "stateMutability": "payable",
      "type": "function"
    },
    {
      "constant": true,
      "inputs": [
        {
          "name": "_gameID",
          "type": "uint256"
        },
        {
          "name": "x",
          "type": "uint256"
        },
        {
          "name": "y",
          "type": "uint256"
        }
      ],
      "name": "getCellVal",
      "outputs": [
        {
          "name": "player",
          "type": "uint8"
        }
      ],
      "payable": false,
      "stateMutability": "view",
      "type": "function"
    },
    {
      "constant": true,
      "inputs": [],
      "name": "getGameCount",
      "outputs": [
        {
          "name": "",
          "type": "uint256"
        }
      ],
      "payable": false,
      "stateMutability": "view",
      "type": "function"
    }
  ],
  "bytecode": "0x608060405234801561001057600080fd5b50336000806101000a81548173ffffffffffffffffffffffffffffffffffffffff021916908373ffffffffffffffffffffffffffffffffffffffff1602179055506128be806100606000396000f3fe6080604052600436106100705760003560e01c8063caf2faaa1161004e578063caf2faaa146102a2578063cfc2f5ff146102cd578063e87c0ee614610393578063f2ff49aa146103be57610070565b8063117a5b90146100755780637d03f5f314610185578063ca6649c5146101e3575b600080fd5b34801561008157600080fd5b506100ae6004803603602081101561009857600080fd5b810190808035906020019092919050505061042f565b604051808d73ffffffffffffffffffffffffffffffffffffffff1673ffffffffffffffffffffffffffffffffffffffff1681526020018c73ffffffffffffffffffffffffffffffffffffffff1673ffffffffffffffffffffffffffffffffffffffff1681526020018b81526020018a815260200189815260200188815260200187600381111561013a57fe5b60ff16815260200186600281111561014e57fe5b60ff1681526020018581526020018481526020018381526020018281526020019c5050505050505050505050505060405180910390f35b34801561019157600080fd5b5061019a6104e9565b604051808381526020018273ffffffffffffffffffffffffffffffffffffffff1673ffffffffffffffffffffffffffffffffffffffff1681526020019250505060405180910390f35b61021c600480360360408110156101f957600080fd5b8101908080359060200190929190803560ff1690602001909291905050506107fd565b604051808315151515815260200180602001828103825283818151815260200191508051906020019080838360005b8381101561026657808201518184015260208101905061024b565b50505050905090810190601f1680156102935780820380516001836020036101000a031916815260200191505b50935050505060405180910390f35b3480156102ae57600080fd5b506102b7611009565b6040518082815260200191505060405180910390f35b61030d600480360360608110156102e357600080fd5b8101908080359060200190929190803590602001909291908035906020019092919050505061100f565b604051808315151515815260200180602001828103825283818151815260200191508051906020019080838360005b8381101561035757808201518184015260208101905061033c565b50505050905090810190601f1680156103845780820380516001836020036101000a031916815260200191505b50935050505060405180910390f35b34801561039f57600080fd5b506103a8611a98565b6040518082815260200191505060405180910390f35b3480156103ca57600080fd5b5061040b600480360360608110156103e157600080fd5b81019080803590602001909291908035906020019092919080359060200190929190505050611aa2565b6040518082600281111561041b57fe5b60ff16815260200191505060405180910390f35b60016020528060005260406000206000915090508060000160009054906101000a900473ffffffffffffffffffffffffffffffffffffffff16908060010160009054906101000a900473ffffffffffffffffffffffffffffffffffffffff16908060020154908060030154908060040154908060050154908060060160009054906101000a900460ff16908060060160019054906101000a900460ff169080600a01549080600b01549080600c01549080600d015490508c565b6000806000809054906101000a900473ffffffffffffffffffffffffffffffffffffffff1673ffffffffffffffffffffffffffffffffffffffff163373ffffffffffffffffffffffffffffffffffffffff16146105ae576040517f08c379a000000000000000000000000000000000000000000000000000000000815260040180806020018281038252601b8152602001807f4f6e6c79206f776e65722063616e206372656174652067616d6521000000000081525060200191505060405180910390fd5b6105b6612521565b60018160e0019060028111156105c857fe5b908160028111156105d557fe5b8152505060c8816101200181815250504281610140018181525050600181610180018181525050600a816101600181815250506002600081548092919060010191905055508060016000600254815260200190815260200160002060008201518160000160006101000a81548173ffffffffffffffffffffffffffffffffffffffff021916908373ffffffffffffffffffffffffffffffffffffffff16021790555060208201518160010160006101000a81548173ffffffffffffffffffffffffffffffffffffffff021916908373ffffffffffffffffffffffffffffffffffffffff16021790555060408201518160020155606082015181600301556080820151816004015560a0820151816005015560c08201518160060160006101000a81548160ff0219169083600381111561070a57fe5b021790555060e08201518160060160016101000a81548160ff0219169083600281111561073357fe5b0217905550610100820151816007019060036107509291906125d1565b5061012082015181600a015561014082015181600b015561016082015181600c015561018082015181600d01559050507fc3e0f84839dc888c892a013d10c8f9d6dc05a21a879d0ce468ca558013e9121c60025433604051808381526020018273ffffffffffffffffffffffffffffffffffffffff1673ffffffffffffffffffffffffffffffffffffffff1681526020019250505060405180910390a16002543380905092509250509091565b60006060600254841115801561081557506000600254115b610887576040517f08c379a00000000000000000000000000000000000000000000000000000000081526004018080602001828103825260138152602001807f4e6f20737563682067616d65206578697374730000000000000000000000000081525060200191505060405180910390fd5b600060016000868152602001908152602001600020905080600a0154341015610918576040517f08c379a00000000000000000000000000000000000000000000000000000000081526004018080602001828103825260128152602001807f496e73756666696369656e74207374616b65000000000000000000000000000081525060200191505060405180910390fd5b8060000160009054906101000a900473ffffffffffffffffffffffffffffffffffffffff1673ffffffffffffffffffffffffffffffffffffffff163373ffffffffffffffffffffffffffffffffffffffff16141580156109c857508060010160009054906101000a900473ffffffffffffffffffffffffffffffffffffffff1673ffffffffffffffffffffffffffffffffffffffff163373ffffffffffffffffffffffffffffffffffffffff1614155b610a3a576040517f08c379a00000000000000000000000000000000000000000000000000000000081526004018080602001828103825260178152602001807f596f752061726520616c726561647920696e2067616d6500000000000000000081525060200191505060405180910390fd5b600073ffffffffffffffffffffffffffffffffffffffff168160000160009054906101000a900473ffffffffffffffffffffffffffffffffffffffff1673ffffffffffffffffffffffffffffffffffffffff161480610ae95750600073ffffffffffffffffffffffffffffffffffffffff168160010160009054906101000a900473ffffffffffffffffffffffffffffffffffffffff1673ffffffffffffffffffffffffffffffffffffffff16145b610b5b576040517f08c379a000000000000000000000000000000000000000000000000000000000815260040180806020018281038252600f8152602001807f416c6c2073656174732074616b656e000000000000000000000000000000000081525060200191505060405180910390fd5b60003390507f1e01c8d258ea60a59bd755ea561a66d21aa15e95a3380e3389ca549d8ccba43182600a01546040518082815260200191505060405180910390a160008560ff161480610bb0575060018560ff16145b610c05576040517f08c379a000000000000000000000000000000000000000000000000000000000815260040180806020018281038252603c815260200180612775603c913960400191505060405180910390fd5b600073ffffffffffffffffffffffffffffffffffffffff168260000160009054906101000a900473ffffffffffffffffffffffffffffffffffffffff1673ffffffffffffffffffffffffffffffffffffffff161415610e7457808260000160006101000a81548173ffffffffffffffffffffffffffffffffffffffff021916908373ffffffffffffffffffffffffffffffffffffffff1602179055503482600201819055507f8f5866c09e99941481e2be79d3a7698371543fe3ad3387b903553fd6043e8550868260016002811115610cda57fe5b604051808481526020018373ffffffffffffffffffffffffffffffffffffffff1673ffffffffffffffffffffffffffffffffffffffff1681526020018260ff1660ff168152602001935050505060405180910390a160008560ff161415610e3157308260010160006101000a81548173ffffffffffffffffffffffffffffffffffffffff021916908373ffffffffffffffffffffffffffffffffffffffff1602179055503482600301819055507f8f5866c09e99941481e2be79d3a7698371543fe3ad3387b903553fd6043e85508630600280811115610db657fe5b604051808481526020018373ffffffffffffffffffffffffffffffffffffffff1673ffffffffffffffffffffffffffffffffffffffff1681526020018260ff1660ff168152602001935050505060405180910390a160016040518060600160405280602f81526020016127d2602f9139935093505050611002565b60016040518060400160405280601581526020017f4a6f696e656420617320706c61796572206f6e652e0000000000000000000000815250935093505050611002565b600073ffffffffffffffffffffffffffffffffffffffff168260010160009054906101000a900473ffffffffffffffffffffffffffffffffffffffff1673ffffffffffffffffffffffffffffffffffffffff161415610fc357348260030181905550808260010160006101000a81548173ffffffffffffffffffffffffffffffffffffffff021916908373ffffffffffffffffffffffffffffffffffffffff1602179055507f8f5866c09e99941481e2be79d3a7698371543fe3ad3387b903553fd6043e85508682600280811115610f4857fe5b604051808481526020018373ffffffffffffffffffffffffffffffffffffffff1673ffffffffffffffffffffffffffffffffffffffff1681526020018260ff1660ff168152602001935050505060405180910390a1600160405180606001604052806039815260200161285a60399139935093505050611002565b60006040518060400160405280601081526020017f416c6c2073656174732074616b656e2e000000000000000000000000000000008152509350935050505b9250929050565b60025481565b60006060600254851115801561102757506000600254115b611099576040517f08c379a00000000000000000000000000000000000000000000000000000000081526004018080602001828103825260138152602001807f4e6f20737563682067616d65206578697374730000000000000000000000000081525060200191505060405180910390fd5b6000600160008781526020019081526020016000209050600060038111156110bd57fe5b8160060160009054906101000a900460ff1660038111156110da57fe5b1461114d576040517f08c379a000000000000000000000000000000000000000000000000000000000815260040180806020018281038252601a8152602001807f5468652067616d652068617320616c726561647920656e64656400000000000081525060200191505060405180910390fd5b600481600d015411156111ab576040517f08c379a00000000000000000000000000000000000000000000000000000000081526004018080602001828103825260378152602001806128236037913960400191505060405180910390fd5b80600c015481600b0154420311156112ed577f4719ef7209543cfdc7d26e9240f79896234119be2c793bd1e1b7b9867fa630d781600b015442036111ee83611af0565b604051808381526020018273ffffffffffffffffffffffffffffffffffffffff1673ffffffffffffffffffffffffffffffffffffffff1681526020019250505060405180910390a1600061124182611af0565b73ffffffffffffffffffffffffffffffffffffffff1690508073ffffffffffffffffffffffffffffffffffffffff166108fc83600301548460020154019081150290604051600060405180830381858888f193505050501580156112a9573d6000803e3d6000fd5b5060006040518060400160405280600981526020017f54696d6564206f75740000000000000000000000000000000000000000000000815250935093505050611a90565b4281600b01819055506112ff81611af0565b73ffffffffffffffffffffffffffffffffffffffff163373ffffffffffffffffffffffffffffffffffffffff161461139f576040517f08c379a000000000000000000000000000000000000000000000000000000000815260040180806020018281038252600d8152602001807f4e6f7420796f7572207475726e0000000000000000000000000000000000000081525060200191505060405180910390fd5b600060028111156113ac57fe5b8160070186600381106113bb57fe5b0185600381106113c757fe5b602091828204019190069054906101000a900460ff1660028111156113e857fe5b1461143e576040517f08c379a00000000000000000000000000000000000000000000000000000000081526004018080602001828103825260218152602001806127b16021913960400191505060405180910390fd5b8060060160019054906101000a900460ff1681600701866003811061145f57fe5b01856003811061146b57fe5b602091828204019190066101000a81548160ff0219169083600281111561148e57fe5b02179055507faa03b0eb53c70f6640eba4234ad2c58782c8927e7abf7d3a6e2c45d07ca9d58386338787604051808581526020018473ffffffffffffffffffffffffffffffffffffffff1673ffffffffffffffffffffffffffffffffffffffff16815260200183815260200182815260200194505050505060405180910390a160006115bb82600701600380602002604051908101604052809291906000905b828210156115b25783820160038060200260405190810160405280929190826003801561159e576020028201916000905b82829054906101000a900460ff16600281111561157857fe5b8152602001906001019060208260000104928301926001038202915080841161155f5790505b50505050508152602001906001019061152e565b50505050611bb3565b9050600060038111156115ca57fe5b8160038111156115d657fe5b14611a0157600160038111156115e857fe5b8160038111156115f457fe5b141561160f5781600401600081548092919060010191905055505b6002600381111561161c57fe5b81600381111561162857fe5b14156116435781600501600081548092919060010191905055505b600482600d015414156118865760008260050154836004015411156116ca578260000160009054906101000a900473ffffffffffffffffffffffffffffffffffffffff1673ffffffffffffffffffffffffffffffffffffffff16905060018360060160006101000a81548160ff021916908360038111156116c057fe5b021790555061178e565b826004015483600501541115611742578260010160009054906101000a900473ffffffffffffffffffffffffffffffffffffffff1673ffffffffffffffffffffffffffffffffffffffff16905060028360060160006101000a81548160ff0219169083600381111561173857fe5b021790555061178d565b6000809054906101000a900473ffffffffffffffffffffffffffffffffffffffff16905060038360060160006101000a81548160ff0219169083600381111561178757fe5b02179055505b5b7fd579003e80bc481e06d15c233fac97b17ae436b83a9528d2fb1469382c07a2548884600d015484604051808481526020018381526020018260038111156117d257fe5b60ff168152602001935050505060405180910390a1600583600d01819055508073ffffffffffffffffffffffffffffffffffffffff166108fc84600301548560020154019081150290604051600060405180830381858888f19350505050158015611841573d6000803e3d6000fd5b5060016040518060400160405280601181526020017f5468652067616d65206973206f7665722e00000000000000000000000000000081525094509450505050611a90565b60008090505b60038110156119045760008090505b60038110156118f65760008460070183600381106118b557fe5b0182600381106118c157fe5b602091828204019190066101000a81548160ff021916908360028111156118e457fe5b0217905550808060010191505061189b565b50808060010191505061188c565b507fd579003e80bc481e06d15c233fac97b17ae436b83a9528d2fb1469382c07a2548783600d0154836040518084815260200183815260200182600381111561194957fe5b60ff168152602001935050505060405180910390a181600d01600081548092919060010191905055506000600283600d01548161198257fe5b0614156119b45760028260060160016101000a81548160ff021916908360028111156119aa57fe5b02179055506119db565b60018260060160016101000a81548160ff021916908360028111156119d557fe5b02179055505b600160405180606001604052806022815260200161280160229139935093505050611a90565b611a0a82611ce4565b3073ffffffffffffffffffffffffffffffffffffffff16611a2a83611af0565b73ffffffffffffffffffffffffffffffffffffffff161415611a5157611a508783611d69565b5b60016040518060400160405280601181526020017f596f7572207475726e206973206f7665720000000000000000000000000000008152509350935050505b935093915050565b6000600254905090565b6000600160008581526020019081526020016000206007018360038110611ac557fe5b018260038110611ad157fe5b602091828204019190069054906101000a900460ff1690509392505050565b600060016002811115611aff57fe5b8260060160019054906101000a900460ff166002811115611b1c57fe5b1415611b4e578160000160009054906101000a900473ffffffffffffffffffffffffffffffffffffffff169050611bae565b600280811115611b5a57fe5b8260060160019054906101000a900460ff166002811115611b7757fe5b1415611ba9578160010160009054906101000a900473ffffffffffffffffffffffffffffffffffffffff169050611bae565b600090505b919050565b600080611bbf83611ee2565b905060006002811115611bce57fe5b816002811115611bda57fe5b14611c0f5760016002811115611bec57fe5b816002811115611bf857fe5b14611c04576002611c07565b60015b915050611cdf565b611c1883612051565b905060006002811115611c2757fe5b816002811115611c3357fe5b14611c685760016002811115611c4557fe5b816002811115611c5157fe5b14611c5d576002611c60565b60015b915050611cdf565b611c71836121c0565b905060006002811115611c8057fe5b816002811115611c8c57fe5b14611cc15760016002811115611c9e57fe5b816002811115611caa57fe5b14611cb6576002611cb9565b60015b915050611cdf565b611cca83612438565b15611cd9576003915050611cdf565b60009150505b919050565b60016002811115611cf157fe5b8160060160019054906101000a900460ff166002811115611d0e57fe5b1415611d3f5760028160060160016101000a81548160ff02191690836002811115611d3557fe5b0217905550611d66565b60018160060160016101000a81548160ff02191690836002811115611d6057fe5b02179055505b50565b6000611d736124d4565b9050600060038281611d8157fe5b069050600060038381611d9057fe5b0490505b60006002811115611da157fe5b846007018360038110611db057fe5b018260038110611dbc57fe5b602091828204019190069054906101000a900460ff166002811115611ddd57fe5b14611e0b57611dea6124d4565b925060038381611df657fe5b06915060038381611e0357fe5b049050611d94565b8360060160019054906101000a900460ff16846007018360038110611e2c57fe5b018260038110611e3857fe5b602091828204019190066101000a81548160ff02191690836002811115611e5b57fe5b02179055507faa03b0eb53c70f6640eba4234ad2c58782c8927e7abf7d3a6e2c45d07ca9d58385308484604051808581526020018473ffffffffffffffffffffffffffffffffffffffff1673ffffffffffffffffffffffffffffffffffffffff16815260200183815260200182815260200194505050505060405180910390a15050505050565b600080600090505b60038160ff16101561204657828160ff1660038110611f0557fe5b6020020151600160038110611f1657fe5b60200201516002811115611f2657fe5b838260ff1660038110611f3557fe5b6020020151600060038110611f4657fe5b60200201516002811115611f5657fe5b148015611fc05750828160ff1660038110611f6d57fe5b6020020151600260038110611f7e57fe5b60200201516002811115611f8e57fe5b838260ff1660038110611f9d57fe5b6020020151600160038110611fae57fe5b60200201516002811115611fbe57fe5b145b8015612007575060006002811115611fd457fe5b838260ff1660038110611fe357fe5b6020020151600060038110611ff457fe5b6020020151600281111561200457fe5b14155b1561203957828160ff166003811061201b57fe5b602002015160006003811061202c57fe5b602002015191505061204c565b8080600101915050611eea565b50600090505b919050565b600080600090505b60038160ff1610156121b5578260016003811061207257fe5b60200201518160ff166003811061208557fe5b6020020151600281111561209557fe5b836000600381106120a257fe5b60200201518260ff16600381106120b557fe5b602002015160028111156120c557fe5b14801561212f5750826002600381106120da57fe5b60200201518160ff16600381106120ed57fe5b602002015160028111156120fd57fe5b8360016003811061210a57fe5b60200201518260ff166003811061211d57fe5b6020020151600281111561212d57fe5b145b801561217657506000600281111561214357fe5b8360006003811061215057fe5b60200201518260ff166003811061216357fe5b6020020151600281111561217357fe5b14155b156121a8578260006003811061218857fe5b60200201518160ff166003811061219b57fe5b60200201519150506121bb565b8080600101915050612059565b50600090505b919050565b6000816001600381106121cf57fe5b60200201516001600381106121e057fe5b602002015160028111156121f057fe5b826000600381106121fd57fe5b602002015160006003811061220e57fe5b6020020151600281111561221e57fe5b14801561228457508160026003811061223357fe5b602002015160026003811061224457fe5b6020020151600281111561225457fe5b8260016003811061226157fe5b602002015160016003811061227257fe5b6020020151600281111561228257fe5b145b80156122c957506000600281111561229857fe5b826000600381106122a557fe5b60200201516000600381106122b657fe5b602002015160028111156122c657fe5b14155b156122f857816000600381106122db57fe5b60200201516000600381106122ec57fe5b60200201519050612433565b8160016003811061230557fe5b602002015160016003811061231657fe5b6020020151600281111561232657fe5b8260006003811061233357fe5b602002015160026003811061234457fe5b6020020151600281111561235457fe5b1480156123ba57508160026003811061236957fe5b602002015160006003811061237a57fe5b6020020151600281111561238a57fe5b8260016003811061239757fe5b60200201516001600381106123a857fe5b602002015160028111156123b857fe5b145b80156123ff5750600060028111156123ce57fe5b826000600381106123db57fe5b60200201516002600381106123ec57fe5b602002015160028111156123fc57fe5b14155b1561242e578160006003811061241157fe5b602002015160026003811061242257fe5b60200201519050612433565b600090505b919050565b600080600090505b60038160ff1610156124c95760008090505b60038160ff1610156124bb576000600281111561246b57fe5b848360ff166003811061247a57fe5b60200201518260ff166003811061248d57fe5b6020020151600281111561249d57fe5b14156124ae576000925050506124cf565b8080600101915050612452565b508080600101915050612440565b50600190505b919050565b600080600090506000600a82604051602001808281526020019150506040516020818303038152906040528051906020012060001c8161251057fe5b069050600182019150809250505090565b604051806102a00160405280600073ffffffffffffffffffffffffffffffffffffffff168152602001600073ffffffffffffffffffffffffffffffffffffffff168152602001600081526020016000815260200160008152602001600081526020016000600381111561259057fe5b8152602001600060028111156125a257fe5b81526020016125af61261f565b8152602001600081526020016000815260200160008152602001600081525090565b826003810192821561260e579160200282015b8281111561260d578251829060036125fd92919061264d565b50916020019190600101906125e4565b5b50905061261b91906126ef565b5090565b6040518061012001604052806003905b61263761271b565b81526020019060019003908161262f5790505090565b826003601f016020900481019282156126de5791602002820160005b838211156126af57835183826101000a81548160ff0219169083600281111561268e57fe5b02179055509260200192600101602081600001049283019260010302612669565b80156126dc5782816101000a81549060ff02191690556001016020816000010492830192600103026126af565b505b5090506126eb919061273d565b5090565b61271891905b80821115612714576000818161270b919061276d565b506001016126f5565b5090565b90565b6040518060600160405280600390602082028038833980820191505090505090565b61276a91905b8082111561276657600081816101000a81549060ff021916905550600101612743565b5090565b90565b506000905556fe57726f6e672063686f69636520656e74657265642d20303a506c617965722076732052616e646f6d2c20313a506c6179657220767320506c61796572496e76616c6964206d6f76652c2063686f6f736520616e6f746865722063656c6c4a6f696e656420617320706c61796572206f6e6520746f20706c617920776974682072616e646f6d206167656e742e4d61746368206f7665722c2070726f63656564696e6720746f206e657874206f6e6547616d65206c696d69742065786365656465642e204d6f6e657920616c7265616479207472616e73666572656420746f2077696e6e65724a6f696e656420617320706c617965722074776f2e20506c61796572206f6e652063616e206d616b6520746865206669727374206d6f76652ea165627a7a72305820696129144c242e96a32a19ccb96cba12c3758e508533b431e3f15768016c8acd0029",
  "source": "pragma solidity >=0.4.21 <0.6.0;\n\n\ncontract TicTacToe {\n    address payable owner;\n    enum Players { None, PlayerOne, PlayerTwo }\n    enum Winners { None, PlayerOne, PlayerTwo, Draw }\n\n    struct Game {\n        address playerOne;\n        address playerTwo;\n        uint256 playerOneStake;\n        uint256 playerTwoStake;\n        uint256 playerOneWins;\n        uint256 playerTwoWins;\n        Winners winner;\n        Players playerTurn;\n        Players[3][3] board;\n        uint256 threshold;\n        uint256 gameTime;\n        uint256 duration;\n        uint256 gameNo;\n    }\n    constructor () public {\n        owner = msg.sender;\n    }\n    mapping(uint256 => Game) public games;\n    uint256 public nrOfGames;\n\n    event GameCreated(uint256 gameId, address creator);\n    event PlayerJoinedGame(uint256 gameId, address player, uint8 playerNumber);\n    event PlayerMadeMove(uint256 gameId, address player, uint xCoordinate, uint yCoordinate);\n    event GameOver(uint256 gameId, Winners winner);\n    event SentMoney(uint256 money);\n    event gameDone(uint gameId, uint gameNo, Winners winner);\n    event TimedOut(uint256 duration, address player);\n    function newGame() public returns (uint256 gameId, address creator) {\n        require(msg.sender == owner, \"Only owner can create game!\");\n        Game memory game;\n        game.playerTurn = Players.PlayerOne;\n        game.threshold = 200;\n        game.gameTime = now;\n        game.gameNo = 1;\n        game.duration = 10; //10s \n        nrOfGames++;\n        games[nrOfGames] = game;\n        emit GameCreated(uint256 (nrOfGames), msg.sender);\n        return (nrOfGames, msg.sender);\n    }\n\n    function joinGame(uint256 _gameId, uint8 choice) public payable returns (bool success, string memory reason) {\n        require(_gameId <= nrOfGames && nrOfGames > 0, \"No such game exists\");    \n        Game storage game = games[_gameId];\n        require (msg.value >= game.threshold, \"Insufficient stake\");\n        require(msg.sender!= address(game.playerOne) && msg.sender!= address(game.playerTwo), \"You are already in game\");\n        require(game.playerOne == address(0) || game.playerTwo == address(0), \"All seats taken\");\n        address player = msg.sender;\n        \n        emit SentMoney(game.threshold); \n\n        require(choice == 0 || choice == 1, \"Wrong choice entered- 0:Player vs Random, 1:Player vs Player\");\n\n        // Assign the new player to slot 1 if it is still available.\n        if (game.playerOne == address(0)) {\n            game.playerOne = player;\n            game.playerOneStake = msg.value;\n            emit PlayerJoinedGame(_gameId, player, uint8(Players.PlayerOne));\n\n            if (choice == 0){\n                game.playerTwo = address(this);\n                game.playerTwoStake = msg.value;\n                emit PlayerJoinedGame(_gameId, address(this), uint8(Players.PlayerTwo));\n                return (true, \"Joined as player one to play with random agent.\" );\n            }\n            return (true, \"Joined as player one.\");\n        }\n        if (game.playerTwo == address(0)) {\n            game.playerTwoStake = msg.value;\n            game.playerTwo = player;\n            emit PlayerJoinedGame(_gameId, player, uint8(Players.PlayerTwo));\n\n            return (true, \"Joined as player two. Player one can make the first move.\");\n        }\n        return (false, \"All seats taken.\");\n    }\n\n    \n    function makeMove(uint256 _gameId, uint _xCoordinate, uint _yCoordinate) public payable returns (bool success, string memory reason) {\n        require(_gameId <= nrOfGames && nrOfGames > 0, \"No such game exists\");    \n        Game storage game = games[_gameId];\n        require(game.winner == Winners.None, \"The game has already ended\");\n        require(game.gameNo <= 4, \"Game limit exceeded. Money already transfered to winner\");\n\n        if (now - game.gameTime > game.duration){\n            emit TimedOut(now - game.gameTime, getCurrentPlayer(game));\n            address payable player = address(uint256(getCurrentPlayer(game)));\n            player.transfer(game.playerOneStake + game.playerTwoStake);\n            return(false, \"Timed out\");\n        }\n        game.gameTime = now;\n        require(msg.sender == getCurrentPlayer(game), \"Not your turn\");\n        require(game.board[_xCoordinate][_yCoordinate] == Players.None, \"Invalid move, choose another cell\");\n\n        game.board[_xCoordinate][_yCoordinate] = game.playerTurn;\n        emit PlayerMadeMove(_gameId, msg.sender, _xCoordinate, _yCoordinate);\n\n        Winners winner = calculateWinner(game.board);\n        if (winner != Winners.None) {\n            if (winner == Winners.PlayerOne){\n                game.playerOneWins++;\n            }\n            if (winner == Winners.PlayerTwo){\n                game.playerTwoWins++;\n            }\n            \n             if(game.gameNo == 4){\n                address payable player;\n                if(game.playerOneWins > game.playerTwoWins){\n                    player = address(uint256(game.playerOne));\n                    game.winner = Winners.PlayerOne;\n                }\n                else if (game.playerTwoWins > game.playerOneWins){\n                    player = address(uint256(game.playerTwo));\n                    game.winner = Winners.PlayerTwo;\n                }\n                else {\n                    player = owner;\n                    game.winner = Winners.Draw;\n                }\n                emit gameDone(_gameId, game.gameNo, winner);\n                game.gameNo = 5;\n                player.transfer(game.playerOneStake + game.playerTwoStake);\n                \n                return (true, \"The game is over.\");\n            }\n\n            else {\n                for(uint i = 0; i<3; i++){\n                    for(uint j = 0; j<3;j++){\n                        game.board[i][j] = Players.None;\n                    }\n                }\n                emit gameDone(_gameId, game.gameNo, winner);\n                game.gameNo++;\n                if(game.gameNo % 2 == 0){\n                    game.playerTurn = Players.PlayerTwo;\n                }\n                else {\n                    game.playerTurn = Players.PlayerOne;\n                }\n                return (true, \"Match over, proceeding to next one\");\n            }\n        }\n\n        // A move was made and there is no winner yet.\n        // The next player should make her move.\n        nextPlayer(game);\n        if (getCurrentPlayer(game) == address(this)){\n            makeRandomMove(_gameId, game);\n        }\n        return (true, \"Your turn is over\");\n    }\n\n    function genRandomNumber() private pure returns (uint256 number){\n        uint256 key = 0;\n        uint256 random = uint256(keccak256(abi.encode(key))) % 10;\n        key += 1;\n        return random;\n    }\n\n    function makeRandomMove(uint256 _gameId, Game storage game) private{\n        uint256 random = genRandomNumber();\n        uint256 x_coordinate = random%3;\n        uint256 y_coordinate = random/3;\n\n        while (game.board[x_coordinate][y_coordinate] != Players.None){ \n            random = genRandomNumber();\n            x_coordinate = random%3;\n            y_coordinate = random/3;\n        }    \n        game.board[x_coordinate][y_coordinate] = game.playerTurn;\n        emit PlayerMadeMove(_gameId, address(this), x_coordinate, y_coordinate);\n    }\n\n    // getCurrentPlayer returns the address of the player that should make the next move.\n    // Returns the `0x0` address if it is no player's turn.\n    function getCurrentPlayer(Game storage _game) private view returns (address player) {\n        if (_game.playerTurn == Players.PlayerOne) {\n            return _game.playerOne;\n        }\n\n        if (_game.playerTurn == Players.PlayerTwo) {\n            return _game.playerTwo;\n        }\n\n        return address(0);\n    }\n\n    // calculateWinner returns the winner on the given board.\n    // The returned winner can be `None` in which case there is no winner and no draw.\n    function calculateWinner(Players[3][3] memory _board) private pure returns (Winners winner) {\n        // First we check if there is a victory in a row.\n        // If so, convert `Players` to `Winners`\n        // Subsequently we do the same for columns and diagonals.\n        Players player = winnerInRow(_board);\n        if (player != Players.None) {\n            return player == Players.PlayerOne ? Winners.PlayerOne : Winners.PlayerTwo;\n        }\n        \n        player = winnerInColumn(_board);\n        if (player != Players.None) {\n            return player == Players.PlayerOne ? Winners.PlayerOne : Winners.PlayerTwo;\n        }\n\n        player = winnerInDiagonal(_board);\n        if (player != Players.None) {\n            return player == Players.PlayerOne ? Winners.PlayerOne : Winners.PlayerTwo;\n        }\n\n        // If there is no winner and no more space on the board,\n        // then it is a draw.\n        if (isBoardFull(_board)) {\n            return Winners.Draw;\n        }\n\n        return Winners.None;\n    }\n\n    // winnerInRow returns the player that wins in any row.\n    // To win in a row, all cells in the row must belong to the same player\n    // and that player must not be the `None` player.\n    function winnerInRow(Players[3][3] memory _board) private pure returns (Players winner) {\n        for (uint8 x = 0; x < 3; x++) {\n            if (\n                _board[x][0] == _board[x][1]\n                && _board[x][1]  == _board[x][2]\n                && _board[x][0] != Players.None\n            ) {\n                return _board[x][0];\n            }\n        }\n\n        return Players.None;\n    }\n\n    // winnerInColumn returns the player that wins in any column.\n    // To win in a column, all cells in the column must belong to the same player\n    // and that player must not be the `None` player.\n    function winnerInColumn(Players[3][3] memory _board) private pure returns (Players winner) {\n        for (uint8 y = 0; y < 3; y++) {\n            if (\n                _board[0][y] == _board[1][y]\n                && _board[1][y] == _board[2][y]\n                && _board[0][y] != Players.None\n            ) {\n                return _board[0][y];\n            }\n        }\n\n        return Players.None;\n    }\n\n    // winnerInDiagoral returns the player that wins in any diagonal.\n    // To win in a diagonal, all cells in the diaggonal must belong to the same player\n    // and that player must not be the `None` player.\n    function winnerInDiagonal(Players[3][3] memory _board) private pure returns (Players winner) {\n        if (\n            _board[0][0] == _board[1][1]\n            && _board[1][1] == _board[2][2]\n            && _board[0][0] != Players.None\n        ) {\n            return _board[0][0];\n        }\n\n        if (\n            _board[0][2] == _board[1][1]\n            && _board[1][1] == _board[2][0]\n            && _board[0][2] != Players.None\n        ) {\n            return _board[0][2];\n        }\n\n        return Players.None;\n    }\n\n    // isBoardFull returns true if all cells of the board belong to a player other\n    // than `None`.\n    function isBoardFull(Players[3][3] memory _board) private pure returns (bool isFull) {\n        for (uint8 x = 0; x < 3; x++) {\n            for (uint8 y = 0; y < 3; y++) {\n                if (_board[x][y] == Players.None) {\n                    return false;\n                }\n            }\n        }\n\n        return true;\n    }\n\n    function getCellVal(uint256 _gameID, uint256 x, uint256 y) public view returns (Players player){\n        return games[_gameID].board[x][y];\n    }\n\n    // nextPlayer changes whose turn it is for the given `_game`.\n    function nextPlayer(Game storage _game) private {\n        if (_game.playerTurn == Players.PlayerOne) {\n            _game.playerTurn = Players.PlayerTwo;\n        } else {\n            _game.playerTurn = Players.PlayerOne;\n        }\n    }\n\n    function getGameCount() public view returns (uint256){\n        return nrOfGames;\n    }\n\n}\n\n\n\n//TimeOut\n//Multiple games",
  "sourcePath": "/home/raviteja/Acads/3-1/Blockchain/Assignments/TicTacToe/contracts/TicTacToe.sol",
  "compiler": {
    "name": "solc",
    "version": "0.5.8+commit.23d335f2.Emscripten.clang"
  },
  "schemaVersion": "3.0.15",
  "updatedAt": "2019-09-17T19:48:14.477Z",
  "devdoc": {
    "methods": {}
  },
  "userdoc": {
    "methods": {}
  }
}